{
	"data": {
		"bytecode": {
			"linkReferences": {},
			"object": "608060405234801561000f575f80fd5b50335f806101000a81548173ffffffffffffffffffffffffffffffffffffffff021916908373ffffffffffffffffffffffffffffffffffffffff1602179055506001805f805f9054906101000a900473ffffffffffffffffffffffffffffffffffffffff1673ffffffffffffffffffffffffffffffffffffffff1673ffffffffffffffffffffffffffffffffffffffff1681526020019081526020015f205f6101000a81548160ff021916908315150217905550611068806100d05f395ff3fe608060405234801561000f575f80fd5b506004361061009c575f3560e01c80638ff29cfe116100645780638ff29cfe14610143578063a618d1fb14610173578063af9b6af2146101a3578063df500a98146101bf578063f2fde38b146101f05761009c565b80634c6be01c146100a0578063603cda09146100bc578063735a4774146100d85780638c9b9fdc146101095780638da5cb5b14610125575b5f80fd5b6100ba60048036038101906100b59190610a06565b61020c565b005b6100d660048036038101906100d19190610acc565b6102e2565b005b6100f260048036038101906100ed9190610af7565b6103c6565b604051610100929190610b4d565b60405180910390f35b610123600480360381019061011e9190610acc565b61041a565b005b61012d6104fe565b60405161013a9190610b83565b60405180910390f35b61015d60048036038101906101589190610acc565b610521565b60405161016a9190610bb6565b60405180910390f35b61018d60048036038101906101889190610a06565b61053e565b60405161019a9190610bb6565b60405180910390f35b6101bd60048036038101906101b89190610d71565b61059d565b005b6101d960048036038101906101d49190610af7565b61072b565b6040516101e7929190610b4d565b60405180910390f35b61020a60048036038101906102059190610acc565b610763565b005b60015f3373ffffffffffffffffffffffffffffffffffffffff1673ffffffffffffffffffffffffffffffffffffffff1681526020019081526020015f205f9054906101000a900460ff16610295576040517f08c379a000000000000000000000000000000000000000000000000000000000815260040161028c90610e6f565b60405180910390fd5b6040518060400160405280838152602001828152506002846040516102ba9190610ef9565b90815260200160405180910390205f820151815f015560208201518160010155905050505050565b5f8054906101000a900473ffffffffffffffffffffffffffffffffffffffff1673ffffffffffffffffffffffffffffffffffffffff163373ffffffffffffffffffffffffffffffffffffffff161461036f576040517f08c379a000000000000000000000000000000000000000000000000000000000815260040161036690610f59565b60405180910390fd5b5f60015f8373ffffffffffffffffffffffffffffffffffffffff1673ffffffffffffffffffffffffffffffffffffffff1681526020019081526020015f205f6101000a81548160ff02191690831515021790555050565b5f805f6002846040516103d99190610ef9565b90815260200160405180910390206040518060400160405290815f82015481526020016001820154815250509050805f015181602001519250925050915091565b5f8054906101000a900473ffffffffffffffffffffffffffffffffffffffff1673ffffffffffffffffffffffffffffffffffffffff163373ffffffffffffffffffffffffffffffffffffffff16146104a7576040517f08c379a000000000000000000000000000000000000000000000000000000000815260040161049e90610f59565b60405180910390fd5b6001805f8373ffffffffffffffffffffffffffffffffffffffff1673ffffffffffffffffffffffffffffffffffffffff1681526020019081526020015f205f6101000a81548160ff02191690831515021790555050565b5f8054906101000a900473ffffffffffffffffffffffffffffffffffffffff1681565b6001602052805f5260405f205f915054906101000a900460ff1681565b5f806002856040516105509190610ef9565b90815260200160405180910390206040518060400160405290815f8201548152602001600182015481525050905083815f01511480156105935750828160200151145b9150509392505050565b60015f3373ffffffffffffffffffffffffffffffffffffffff1673ffffffffffffffffffffffffffffffffffffffff1681526020019081526020015f205f9054906101000a900460ff16610626576040517f08c379a000000000000000000000000000000000000000000000000000000000815260040161061d90610e6f565b60405180910390fd5b81518351148015610638575080518251145b610677576040517f08c379a000000000000000000000000000000000000000000000000000000000815260040161066e90610fe7565b60405180910390fd5b5f5b83518110156107255760405180604001604052808483815181106106a05761069f611005565b5b602002602001015181526020018383815181106106c0576106bf611005565b5b602002602001015181525060028583815181106106e0576106df611005565b5b60200260200101516040516106f59190610ef9565b90815260200160405180910390205f820151815f0155602082015181600101559050508080600101915050610679565b50505050565b6002818051602081018201805184825260208301602085012081835280955050505050505f91509050805f0154908060010154905082565b5f8054906101000a900473ffffffffffffffffffffffffffffffffffffffff1673ffffffffffffffffffffffffffffffffffffffff163373ffffffffffffffffffffffffffffffffffffffff16146107f0576040517f08c379a00000000000000000000000000000000000000000000000000000000081526004016107e790610f59565b60405180910390fd5b805f806101000a81548173ffffffffffffffffffffffffffffffffffffffff021916908373ffffffffffffffffffffffffffffffffffffffff1602179055506001805f8373ffffffffffffffffffffffffffffffffffffffff1673ffffffffffffffffffffffffffffffffffffffff1681526020019081526020015f205f6101000a81548160ff02191690831515021790555050565b5f604051905090565b5f80fd5b5f80fd5b5f80fd5b5f80fd5b5f601f19601f8301169050919050565b7f4e487b71000000000000000000000000000000000000000000000000000000005f52604160045260245ffd5b6108e58261089f565b810181811067ffffffffffffffff82111715610904576109036108af565b5b80604052505050565b5f610916610886565b905061092282826108dc565b919050565b5f67ffffffffffffffff821115610941576109406108af565b5b61094a8261089f565b9050602081019050919050565b828183375f83830152505050565b5f61097761097284610927565b61090d565b9050828152602081018484840111156109935761099261089b565b5b61099e848285610957565b509392505050565b5f82601f8301126109ba576109b9610897565b5b81356109ca848260208601610965565b91505092915050565b5f819050919050565b6109e5816109d3565b81146109ef575f80fd5b50565b5f81359050610a00816109dc565b92915050565b5f805f60608486031215610a1d57610a1c61088f565b5b5f84013567ffffffffffffffff811115610a3a57610a39610893565b5b610a46868287016109a6565b9350506020610a57868287016109f2565b9250506040610a68868287016109f2565b9150509250925092565b5f73ffffffffffffffffffffffffffffffffffffffff82169050919050565b5f610a9b82610a72565b9050919050565b610aab81610a91565b8114610ab5575f80fd5b50565b5f81359050610ac681610aa2565b92915050565b5f60208284031215610ae157610ae061088f565b5b5f610aee84828501610ab8565b91505092915050565b5f60208284031215610b0c57610b0b61088f565b5b5f82013567ffffffffffffffff811115610b2957610b28610893565b5b610b35848285016109a6565b91505092915050565b610b47816109d3565b82525050565b5f604082019050610b605f830185610b3e565b610b6d6020830184610b3e565b9392505050565b610b7d81610a91565b82525050565b5f602082019050610b965f830184610b74565b92915050565b5f8115159050919050565b610bb081610b9c565b82525050565b5f602082019050610bc95f830184610ba7565b92915050565b5f67ffffffffffffffff821115610be957610be86108af565b5b602082029050602081019050919050565b5f80fd5b5f610c10610c0b84610bcf565b61090d565b90508083825260208201905060208402830185811115610c3357610c32610bfa565b5b835b81811015610c7a57803567ffffffffffffffff811115610c5857610c57610897565b5b808601610c6589826109a6565b85526020850194505050602081019050610c35565b5050509392505050565b5f82601f830112610c9857610c97610897565b5b8135610ca8848260208601610bfe565b91505092915050565b5f67ffffffffffffffff821115610ccb57610cca6108af565b5b602082029050602081019050919050565b5f610cee610ce984610cb1565b61090d565b90508083825260208201905060208402830185811115610d1157610d10610bfa565b5b835b81811015610d3a5780610d2688826109f2565b845260208401935050602081019050610d13565b5050509392505050565b5f82601f830112610d5857610d57610897565b5b8135610d68848260208601610cdc565b91505092915050565b5f805f60608486031215610d8857610d8761088f565b5b5f84013567ffffffffffffffff811115610da557610da4610893565b5b610db186828701610c84565b935050602084013567ffffffffffffffff811115610dd257610dd1610893565b5b610dde86828701610d44565b925050604084013567ffffffffffffffff811115610dff57610dfe610893565b5b610e0b86828701610d44565b9150509250925092565b5f82825260208201905092915050565b7f43616c6c6572206973206e6f7420617574686f72697a656400000000000000005f82015250565b5f610e59601883610e15565b9150610e6482610e25565b602082019050919050565b5f6020820190508181035f830152610e8681610e4d565b9050919050565b5f81519050919050565b5f81905092915050565b5f5b83811015610ebe578082015181840152602081019050610ea3565b5f8484015250505050565b5f610ed382610e8d565b610edd8185610e97565b9350610eed818560208601610ea1565b80840191505092915050565b5f610f048284610ec9565b915081905092915050565b7f43616c6c6572206973206e6f7420746865206f776e65720000000000000000005f82015250565b5f610f43601783610e15565b9150610f4e82610f0f565b602082019050919050565b5f6020820190508181035f830152610f7081610f37565b9050919050565b7f4461746120617272617973206d7573742068617665207468652073616d65206c5f8201527f656e677468000000000000000000000000000000000000000000000000000000602082015250565b5f610fd1602583610e15565b9150610fdc82610f77565b604082019050919050565b5f6020820190508181035f830152610ffe81610fc5565b9050919050565b7f4e487b71000000000000000000000000000000000000000000000000000000005f52603260045260245ffdfea26469706673582212209b3061234a94f7d3623bed4156e6582419ef621afd025192e791e8146a4a344964736f6c63430008180033",
			"opcodes": "PUSH1 0x80 PUSH1 0x40 MSTORE CALLVALUE DUP1 ISZERO PUSH2 0xF JUMPI PUSH0 DUP1 REVERT JUMPDEST POP CALLER PUSH0 DUP1 PUSH2 0x100 EXP DUP2 SLOAD DUP2 PUSH20 0xFFFFFFFFFFFFFFFFFFFFFFFFFFFFFFFFFFFFFFFF MUL NOT AND SWAP1 DUP4 PUSH20 0xFFFFFFFFFFFFFFFFFFFFFFFFFFFFFFFFFFFFFFFF AND MUL OR SWAP1 SSTORE POP PUSH1 0x1 DUP1 PUSH0 DUP1 PUSH0 SWAP1 SLOAD SWAP1 PUSH2 0x100 EXP SWAP1 DIV PUSH20 0xFFFFFFFFFFFFFFFFFFFFFFFFFFFFFFFFFFFFFFFF AND PUSH20 0xFFFFFFFFFFFFFFFFFFFFFFFFFFFFFFFFFFFFFFFF AND PUSH20 0xFFFFFFFFFFFFFFFFFFFFFFFFFFFFFFFFFFFFFFFF AND DUP2 MSTORE PUSH1 0x20 ADD SWAP1 DUP2 MSTORE PUSH1 0x20 ADD PUSH0 KECCAK256 PUSH0 PUSH2 0x100 EXP DUP2 SLOAD DUP2 PUSH1 0xFF MUL NOT AND SWAP1 DUP4 ISZERO ISZERO MUL OR SWAP1 SSTORE POP PUSH2 0x1068 DUP1 PUSH2 0xD0 PUSH0 CODECOPY PUSH0 RETURN INVALID PUSH1 0x80 PUSH1 0x40 MSTORE CALLVALUE DUP1 ISZERO PUSH2 0xF JUMPI PUSH0 DUP1 REVERT JUMPDEST POP PUSH1 0x4 CALLDATASIZE LT PUSH2 0x9C JUMPI PUSH0 CALLDATALOAD PUSH1 0xE0 SHR DUP1 PUSH4 0x8FF29CFE GT PUSH2 0x64 JUMPI DUP1 PUSH4 0x8FF29CFE EQ PUSH2 0x143 JUMPI DUP1 PUSH4 0xA618D1FB EQ PUSH2 0x173 JUMPI DUP1 PUSH4 0xAF9B6AF2 EQ PUSH2 0x1A3 JUMPI DUP1 PUSH4 0xDF500A98 EQ PUSH2 0x1BF JUMPI DUP1 PUSH4 0xF2FDE38B EQ PUSH2 0x1F0 JUMPI PUSH2 0x9C JUMP JUMPDEST DUP1 PUSH4 0x4C6BE01C EQ PUSH2 0xA0 JUMPI DUP1 PUSH4 0x603CDA09 EQ PUSH2 0xBC JUMPI DUP1 PUSH4 0x735A4774 EQ PUSH2 0xD8 JUMPI DUP1 PUSH4 0x8C9B9FDC EQ PUSH2 0x109 JUMPI DUP1 PUSH4 0x8DA5CB5B EQ PUSH2 0x125 JUMPI JUMPDEST PUSH0 DUP1 REVERT JUMPDEST PUSH2 0xBA PUSH1 0x4 DUP1 CALLDATASIZE SUB DUP2 ADD SWAP1 PUSH2 0xB5 SWAP2 SWAP1 PUSH2 0xA06 JUMP JUMPDEST PUSH2 0x20C JUMP JUMPDEST STOP JUMPDEST PUSH2 0xD6 PUSH1 0x4 DUP1 CALLDATASIZE SUB DUP2 ADD SWAP1 PUSH2 0xD1 SWAP2 SWAP1 PUSH2 0xACC JUMP JUMPDEST PUSH2 0x2E2 JUMP JUMPDEST STOP JUMPDEST PUSH2 0xF2 PUSH1 0x4 DUP1 CALLDATASIZE SUB DUP2 ADD SWAP1 PUSH2 0xED SWAP2 SWAP1 PUSH2 0xAF7 JUMP JUMPDEST PUSH2 0x3C6 JUMP JUMPDEST PUSH1 0x40 MLOAD PUSH2 0x100 SWAP3 SWAP2 SWAP1 PUSH2 0xB4D JUMP JUMPDEST PUSH1 0x40 MLOAD DUP1 SWAP2 SUB SWAP1 RETURN JUMPDEST PUSH2 0x123 PUSH1 0x4 DUP1 CALLDATASIZE SUB DUP2 ADD SWAP1 PUSH2 0x11E SWAP2 SWAP1 PUSH2 0xACC JUMP JUMPDEST PUSH2 0x41A JUMP JUMPDEST STOP JUMPDEST PUSH2 0x12D PUSH2 0x4FE JUMP JUMPDEST PUSH1 0x40 MLOAD PUSH2 0x13A SWAP2 SWAP1 PUSH2 0xB83 JUMP JUMPDEST PUSH1 0x40 MLOAD DUP1 SWAP2 SUB SWAP1 RETURN JUMPDEST PUSH2 0x15D PUSH1 0x4 DUP1 CALLDATASIZE SUB DUP2 ADD SWAP1 PUSH2 0x158 SWAP2 SWAP1 PUSH2 0xACC JUMP JUMPDEST PUSH2 0x521 JUMP JUMPDEST PUSH1 0x40 MLOAD PUSH2 0x16A SWAP2 SWAP1 PUSH2 0xBB6 JUMP JUMPDEST PUSH1 0x40 MLOAD DUP1 SWAP2 SUB SWAP1 RETURN JUMPDEST PUSH2 0x18D PUSH1 0x4 DUP1 CALLDATASIZE SUB DUP2 ADD SWAP1 PUSH2 0x188 SWAP2 SWAP1 PUSH2 0xA06 JUMP JUMPDEST PUSH2 0x53E JUMP JUMPDEST PUSH1 0x40 MLOAD PUSH2 0x19A SWAP2 SWAP1 PUSH2 0xBB6 JUMP JUMPDEST PUSH1 0x40 MLOAD DUP1 SWAP2 SUB SWAP1 RETURN JUMPDEST PUSH2 0x1BD PUSH1 0x4 DUP1 CALLDATASIZE SUB DUP2 ADD SWAP1 PUSH2 0x1B8 SWAP2 SWAP1 PUSH2 0xD71 JUMP JUMPDEST PUSH2 0x59D JUMP JUMPDEST STOP JUMPDEST PUSH2 0x1D9 PUSH1 0x4 DUP1 CALLDATASIZE SUB DUP2 ADD SWAP1 PUSH2 0x1D4 SWAP2 SWAP1 PUSH2 0xAF7 JUMP JUMPDEST PUSH2 0x72B JUMP JUMPDEST PUSH1 0x40 MLOAD PUSH2 0x1E7 SWAP3 SWAP2 SWAP1 PUSH2 0xB4D JUMP JUMPDEST PUSH1 0x40 MLOAD DUP1 SWAP2 SUB SWAP1 RETURN JUMPDEST PUSH2 0x20A PUSH1 0x4 DUP1 CALLDATASIZE SUB DUP2 ADD SWAP1 PUSH2 0x205 SWAP2 SWAP1 PUSH2 0xACC JUMP JUMPDEST PUSH2 0x763 JUMP JUMPDEST STOP JUMPDEST PUSH1 0x1 PUSH0 CALLER PUSH20 0xFFFFFFFFFFFFFFFFFFFFFFFFFFFFFFFFFFFFFFFF AND PUSH20 0xFFFFFFFFFFFFFFFFFFFFFFFFFFFFFFFFFFFFFFFF AND DUP2 MSTORE PUSH1 0x20 ADD SWAP1 DUP2 MSTORE PUSH1 0x20 ADD PUSH0 KECCAK256 PUSH0 SWAP1 SLOAD SWAP1 PUSH2 0x100 EXP SWAP1 DIV PUSH1 0xFF AND PUSH2 0x295 JUMPI PUSH1 0x40 MLOAD PUSH32 0x8C379A000000000000000000000000000000000000000000000000000000000 DUP2 MSTORE PUSH1 0x4 ADD PUSH2 0x28C SWAP1 PUSH2 0xE6F JUMP JUMPDEST PUSH1 0x40 MLOAD DUP1 SWAP2 SUB SWAP1 REVERT JUMPDEST PUSH1 0x40 MLOAD DUP1 PUSH1 0x40 ADD PUSH1 0x40 MSTORE DUP1 DUP4 DUP2 MSTORE PUSH1 0x20 ADD DUP3 DUP2 MSTORE POP PUSH1 0x2 DUP5 PUSH1 0x40 MLOAD PUSH2 0x2BA SWAP2 SWAP1 PUSH2 0xEF9 JUMP JUMPDEST SWAP1 DUP2 MSTORE PUSH1 0x20 ADD PUSH1 0x40 MLOAD DUP1 SWAP2 SUB SWAP1 KECCAK256 PUSH0 DUP3 ADD MLOAD DUP2 PUSH0 ADD SSTORE PUSH1 0x20 DUP3 ADD MLOAD DUP2 PUSH1 0x1 ADD SSTORE SWAP1 POP POP POP POP POP JUMP JUMPDEST PUSH0 DUP1 SLOAD SWAP1 PUSH2 0x100 EXP SWAP1 DIV PUSH20 0xFFFFFFFFFFFFFFFFFFFFFFFFFFFFFFFFFFFFFFFF AND PUSH20 0xFFFFFFFFFFFFFFFFFFFFFFFFFFFFFFFFFFFFFFFF AND CALLER PUSH20 0xFFFFFFFFFFFFFFFFFFFFFFFFFFFFFFFFFFFFFFFF AND EQ PUSH2 0x36F JUMPI PUSH1 0x40 MLOAD PUSH32 0x8C379A000000000000000000000000000000000000000000000000000000000 DUP2 MSTORE PUSH1 0x4 ADD PUSH2 0x366 SWAP1 PUSH2 0xF59 JUMP JUMPDEST PUSH1 0x40 MLOAD DUP1 SWAP2 SUB SWAP1 REVERT JUMPDEST PUSH0 PUSH1 0x1 PUSH0 DUP4 PUSH20 0xFFFFFFFFFFFFFFFFFFFFFFFFFFFFFFFFFFFFFFFF AND PUSH20 0xFFFFFFFFFFFFFFFFFFFFFFFFFFFFFFFFFFFFFFFF AND DUP2 MSTORE PUSH1 0x20 ADD SWAP1 DUP2 MSTORE PUSH1 0x20 ADD PUSH0 KECCAK256 PUSH0 PUSH2 0x100 EXP DUP2 SLOAD DUP2 PUSH1 0xFF MUL NOT AND SWAP1 DUP4 ISZERO ISZERO MUL OR SWAP1 SSTORE POP POP JUMP JUMPDEST PUSH0 DUP1 PUSH0 PUSH1 0x2 DUP5 PUSH1 0x40 MLOAD PUSH2 0x3D9 SWAP2 SWAP1 PUSH2 0xEF9 JUMP JUMPDEST SWAP1 DUP2 MSTORE PUSH1 0x20 ADD PUSH1 0x40 MLOAD DUP1 SWAP2 SUB SWAP1 KECCAK256 PUSH1 0x40 MLOAD DUP1 PUSH1 0x40 ADD PUSH1 0x40 MSTORE SWAP1 DUP2 PUSH0 DUP3 ADD SLOAD DUP2 MSTORE PUSH1 0x20 ADD PUSH1 0x1 DUP3 ADD SLOAD DUP2 MSTORE POP POP SWAP1 POP DUP1 PUSH0 ADD MLOAD DUP2 PUSH1 0x20 ADD MLOAD SWAP3 POP SWAP3 POP POP SWAP2 POP SWAP2 JUMP JUMPDEST PUSH0 DUP1 SLOAD SWAP1 PUSH2 0x100 EXP SWAP1 DIV PUSH20 0xFFFFFFFFFFFFFFFFFFFFFFFFFFFFFFFFFFFFFFFF AND PUSH20 0xFFFFFFFFFFFFFFFFFFFFFFFFFFFFFFFFFFFFFFFF AND CALLER PUSH20 0xFFFFFFFFFFFFFFFFFFFFFFFFFFFFFFFFFFFFFFFF AND EQ PUSH2 0x4A7 JUMPI PUSH1 0x40 MLOAD PUSH32 0x8C379A000000000000000000000000000000000000000000000000000000000 DUP2 MSTORE PUSH1 0x4 ADD PUSH2 0x49E SWAP1 PUSH2 0xF59 JUMP JUMPDEST PUSH1 0x40 MLOAD DUP1 SWAP2 SUB SWAP1 REVERT JUMPDEST PUSH1 0x1 DUP1 PUSH0 DUP4 PUSH20 0xFFFFFFFFFFFFFFFFFFFFFFFFFFFFFFFFFFFFFFFF AND PUSH20 0xFFFFFFFFFFFFFFFFFFFFFFFFFFFFFFFFFFFFFFFF AND DUP2 MSTORE PUSH1 0x20 ADD SWAP1 DUP2 MSTORE PUSH1 0x20 ADD PUSH0 KECCAK256 PUSH0 PUSH2 0x100 EXP DUP2 SLOAD DUP2 PUSH1 0xFF MUL NOT AND SWAP1 DUP4 ISZERO ISZERO MUL OR SWAP1 SSTORE POP POP JUMP JUMPDEST PUSH0 DUP1 SLOAD SWAP1 PUSH2 0x100 EXP SWAP1 DIV PUSH20 0xFFFFFFFFFFFFFFFFFFFFFFFFFFFFFFFFFFFFFFFF AND DUP2 JUMP JUMPDEST PUSH1 0x1 PUSH1 0x20 MSTORE DUP1 PUSH0 MSTORE PUSH1 0x40 PUSH0 KECCAK256 PUSH0 SWAP2 POP SLOAD SWAP1 PUSH2 0x100 EXP SWAP1 DIV PUSH1 0xFF AND DUP2 JUMP JUMPDEST PUSH0 DUP1 PUSH1 0x2 DUP6 PUSH1 0x40 MLOAD PUSH2 0x550 SWAP2 SWAP1 PUSH2 0xEF9 JUMP JUMPDEST SWAP1 DUP2 MSTORE PUSH1 0x20 ADD PUSH1 0x40 MLOAD DUP1 SWAP2 SUB SWAP1 KECCAK256 PUSH1 0x40 MLOAD DUP1 PUSH1 0x40 ADD PUSH1 0x40 MSTORE SWAP1 DUP2 PUSH0 DUP3 ADD SLOAD DUP2 MSTORE PUSH1 0x20 ADD PUSH1 0x1 DUP3 ADD SLOAD DUP2 MSTORE POP POP SWAP1 POP DUP4 DUP2 PUSH0 ADD MLOAD EQ DUP1 ISZERO PUSH2 0x593 JUMPI POP DUP3 DUP2 PUSH1 0x20 ADD MLOAD EQ JUMPDEST SWAP2 POP POP SWAP4 SWAP3 POP POP POP JUMP JUMPDEST PUSH1 0x1 PUSH0 CALLER PUSH20 0xFFFFFFFFFFFFFFFFFFFFFFFFFFFFFFFFFFFFFFFF AND PUSH20 0xFFFFFFFFFFFFFFFFFFFFFFFFFFFFFFFFFFFFFFFF AND DUP2 MSTORE PUSH1 0x20 ADD SWAP1 DUP2 MSTORE PUSH1 0x20 ADD PUSH0 KECCAK256 PUSH0 SWAP1 SLOAD SWAP1 PUSH2 0x100 EXP SWAP1 DIV PUSH1 0xFF AND PUSH2 0x626 JUMPI PUSH1 0x40 MLOAD PUSH32 0x8C379A000000000000000000000000000000000000000000000000000000000 DUP2 MSTORE PUSH1 0x4 ADD PUSH2 0x61D SWAP1 PUSH2 0xE6F JUMP JUMPDEST PUSH1 0x40 MLOAD DUP1 SWAP2 SUB SWAP1 REVERT JUMPDEST DUP2 MLOAD DUP4 MLOAD EQ DUP1 ISZERO PUSH2 0x638 JUMPI POP DUP1 MLOAD DUP3 MLOAD EQ JUMPDEST PUSH2 0x677 JUMPI PUSH1 0x40 MLOAD PUSH32 0x8C379A000000000000000000000000000000000000000000000000000000000 DUP2 MSTORE PUSH1 0x4 ADD PUSH2 0x66E SWAP1 PUSH2 0xFE7 JUMP JUMPDEST PUSH1 0x40 MLOAD DUP1 SWAP2 SUB SWAP1 REVERT JUMPDEST PUSH0 JUMPDEST DUP4 MLOAD DUP2 LT ISZERO PUSH2 0x725 JUMPI PUSH1 0x40 MLOAD DUP1 PUSH1 0x40 ADD PUSH1 0x40 MSTORE DUP1 DUP5 DUP4 DUP2 MLOAD DUP2 LT PUSH2 0x6A0 JUMPI PUSH2 0x69F PUSH2 0x1005 JUMP JUMPDEST JUMPDEST PUSH1 0x20 MUL PUSH1 0x20 ADD ADD MLOAD DUP2 MSTORE PUSH1 0x20 ADD DUP4 DUP4 DUP2 MLOAD DUP2 LT PUSH2 0x6C0 JUMPI PUSH2 0x6BF PUSH2 0x1005 JUMP JUMPDEST JUMPDEST PUSH1 0x20 MUL PUSH1 0x20 ADD ADD MLOAD DUP2 MSTORE POP PUSH1 0x2 DUP6 DUP4 DUP2 MLOAD DUP2 LT PUSH2 0x6E0 JUMPI PUSH2 0x6DF PUSH2 0x1005 JUMP JUMPDEST JUMPDEST PUSH1 0x20 MUL PUSH1 0x20 ADD ADD MLOAD PUSH1 0x40 MLOAD PUSH2 0x6F5 SWAP2 SWAP1 PUSH2 0xEF9 JUMP JUMPDEST SWAP1 DUP2 MSTORE PUSH1 0x20 ADD PUSH1 0x40 MLOAD DUP1 SWAP2 SUB SWAP1 KECCAK256 PUSH0 DUP3 ADD MLOAD DUP2 PUSH0 ADD SSTORE PUSH1 0x20 DUP3 ADD MLOAD DUP2 PUSH1 0x1 ADD SSTORE SWAP1 POP POP DUP1 DUP1 PUSH1 0x1 ADD SWAP2 POP POP PUSH2 0x679 JUMP JUMPDEST POP POP POP POP JUMP JUMPDEST PUSH1 0x2 DUP2 DUP1 MLOAD PUSH1 0x20 DUP2 ADD DUP3 ADD DUP1 MLOAD DUP5 DUP3 MSTORE PUSH1 0x20 DUP4 ADD PUSH1 0x20 DUP6 ADD KECCAK256 DUP2 DUP4 MSTORE DUP1 SWAP6 POP POP POP POP POP POP PUSH0 SWAP2 POP SWAP1 POP DUP1 PUSH0 ADD SLOAD SWAP1 DUP1 PUSH1 0x1 ADD SLOAD SWAP1 POP DUP3 JUMP JUMPDEST PUSH0 DUP1 SLOAD SWAP1 PUSH2 0x100 EXP SWAP1 DIV PUSH20 0xFFFFFFFFFFFFFFFFFFFFFFFFFFFFFFFFFFFFFFFF AND PUSH20 0xFFFFFFFFFFFFFFFFFFFFFFFFFFFFFFFFFFFFFFFF AND CALLER PUSH20 0xFFFFFFFFFFFFFFFFFFFFFFFFFFFFFFFFFFFFFFFF AND EQ PUSH2 0x7F0 JUMPI PUSH1 0x40 MLOAD PUSH32 0x8C379A000000000000000000000000000000000000000000000000000000000 DUP2 MSTORE PUSH1 0x4 ADD PUSH2 0x7E7 SWAP1 PUSH2 0xF59 JUMP JUMPDEST PUSH1 0x40 MLOAD DUP1 SWAP2 SUB SWAP1 REVERT JUMPDEST DUP1 PUSH0 DUP1 PUSH2 0x100 EXP DUP2 SLOAD DUP2 PUSH20 0xFFFFFFFFFFFFFFFFFFFFFFFFFFFFFFFFFFFFFFFF MUL NOT AND SWAP1 DUP4 PUSH20 0xFFFFFFFFFFFFFFFFFFFFFFFFFFFFFFFFFFFFFFFF AND MUL OR SWAP1 SSTORE POP PUSH1 0x1 DUP1 PUSH0 DUP4 PUSH20 0xFFFFFFFFFFFFFFFFFFFFFFFFFFFFFFFFFFFFFFFF AND PUSH20 0xFFFFFFFFFFFFFFFFFFFFFFFFFFFFFFFFFFFFFFFF AND DUP2 MSTORE PUSH1 0x20 ADD SWAP1 DUP2 MSTORE PUSH1 0x20 ADD PUSH0 KECCAK256 PUSH0 PUSH2 0x100 EXP DUP2 SLOAD DUP2 PUSH1 0xFF MUL NOT AND SWAP1 DUP4 ISZERO ISZERO MUL OR SWAP1 SSTORE POP POP JUMP JUMPDEST PUSH0 PUSH1 0x40 MLOAD SWAP1 POP SWAP1 JUMP JUMPDEST PUSH0 DUP1 REVERT JUMPDEST PUSH0 DUP1 REVERT JUMPDEST PUSH0 DUP1 REVERT JUMPDEST PUSH0 DUP1 REVERT JUMPDEST PUSH0 PUSH1 0x1F NOT PUSH1 0x1F DUP4 ADD AND SWAP1 POP SWAP2 SWAP1 POP JUMP JUMPDEST PUSH32 0x4E487B7100000000000000000000000000000000000000000000000000000000 PUSH0 MSTORE PUSH1 0x41 PUSH1 0x4 MSTORE PUSH1 0x24 PUSH0 REVERT JUMPDEST PUSH2 0x8E5 DUP3 PUSH2 0x89F JUMP JUMPDEST DUP2 ADD DUP2 DUP2 LT PUSH8 0xFFFFFFFFFFFFFFFF DUP3 GT OR ISZERO PUSH2 0x904 JUMPI PUSH2 0x903 PUSH2 0x8AF JUMP JUMPDEST JUMPDEST DUP1 PUSH1 0x40 MSTORE POP POP POP JUMP JUMPDEST PUSH0 PUSH2 0x916 PUSH2 0x886 JUMP JUMPDEST SWAP1 POP PUSH2 0x922 DUP3 DUP3 PUSH2 0x8DC JUMP JUMPDEST SWAP2 SWAP1 POP JUMP JUMPDEST PUSH0 PUSH8 0xFFFFFFFFFFFFFFFF DUP3 GT ISZERO PUSH2 0x941 JUMPI PUSH2 0x940 PUSH2 0x8AF JUMP JUMPDEST JUMPDEST PUSH2 0x94A DUP3 PUSH2 0x89F JUMP JUMPDEST SWAP1 POP PUSH1 0x20 DUP2 ADD SWAP1 POP SWAP2 SWAP1 POP JUMP JUMPDEST DUP3 DUP2 DUP4 CALLDATACOPY PUSH0 DUP4 DUP4 ADD MSTORE POP POP POP JUMP JUMPDEST PUSH0 PUSH2 0x977 PUSH2 0x972 DUP5 PUSH2 0x927 JUMP JUMPDEST PUSH2 0x90D JUMP JUMPDEST SWAP1 POP DUP3 DUP2 MSTORE PUSH1 0x20 DUP2 ADD DUP5 DUP5 DUP5 ADD GT ISZERO PUSH2 0x993 JUMPI PUSH2 0x992 PUSH2 0x89B JUMP JUMPDEST JUMPDEST PUSH2 0x99E DUP5 DUP3 DUP6 PUSH2 0x957 JUMP JUMPDEST POP SWAP4 SWAP3 POP POP POP JUMP JUMPDEST PUSH0 DUP3 PUSH1 0x1F DUP4 ADD SLT PUSH2 0x9BA JUMPI PUSH2 0x9B9 PUSH2 0x897 JUMP JUMPDEST JUMPDEST DUP2 CALLDATALOAD PUSH2 0x9CA DUP5 DUP3 PUSH1 0x20 DUP7 ADD PUSH2 0x965 JUMP JUMPDEST SWAP2 POP POP SWAP3 SWAP2 POP POP JUMP JUMPDEST PUSH0 DUP2 SWAP1 POP SWAP2 SWAP1 POP JUMP JUMPDEST PUSH2 0x9E5 DUP2 PUSH2 0x9D3 JUMP JUMPDEST DUP2 EQ PUSH2 0x9EF JUMPI PUSH0 DUP1 REVERT JUMPDEST POP JUMP JUMPDEST PUSH0 DUP2 CALLDATALOAD SWAP1 POP PUSH2 0xA00 DUP2 PUSH2 0x9DC JUMP JUMPDEST SWAP3 SWAP2 POP POP JUMP JUMPDEST PUSH0 DUP1 PUSH0 PUSH1 0x60 DUP5 DUP7 SUB SLT ISZERO PUSH2 0xA1D JUMPI PUSH2 0xA1C PUSH2 0x88F JUMP JUMPDEST JUMPDEST PUSH0 DUP5 ADD CALLDATALOAD PUSH8 0xFFFFFFFFFFFFFFFF DUP2 GT ISZERO PUSH2 0xA3A JUMPI PUSH2 0xA39 PUSH2 0x893 JUMP JUMPDEST JUMPDEST PUSH2 0xA46 DUP7 DUP3 DUP8 ADD PUSH2 0x9A6 JUMP JUMPDEST SWAP4 POP POP PUSH1 0x20 PUSH2 0xA57 DUP7 DUP3 DUP8 ADD PUSH2 0x9F2 JUMP JUMPDEST SWAP3 POP POP PUSH1 0x40 PUSH2 0xA68 DUP7 DUP3 DUP8 ADD PUSH2 0x9F2 JUMP JUMPDEST SWAP2 POP POP SWAP3 POP SWAP3 POP SWAP3 JUMP JUMPDEST PUSH0 PUSH20 0xFFFFFFFFFFFFFFFFFFFFFFFFFFFFFFFFFFFFFFFF DUP3 AND SWAP1 POP SWAP2 SWAP1 POP JUMP JUMPDEST PUSH0 PUSH2 0xA9B DUP3 PUSH2 0xA72 JUMP JUMPDEST SWAP1 POP SWAP2 SWAP1 POP JUMP JUMPDEST PUSH2 0xAAB DUP2 PUSH2 0xA91 JUMP JUMPDEST DUP2 EQ PUSH2 0xAB5 JUMPI PUSH0 DUP1 REVERT JUMPDEST POP JUMP JUMPDEST PUSH0 DUP2 CALLDATALOAD SWAP1 POP PUSH2 0xAC6 DUP2 PUSH2 0xAA2 JUMP JUMPDEST SWAP3 SWAP2 POP POP JUMP JUMPDEST PUSH0 PUSH1 0x20 DUP3 DUP5 SUB SLT ISZERO PUSH2 0xAE1 JUMPI PUSH2 0xAE0 PUSH2 0x88F JUMP JUMPDEST JUMPDEST PUSH0 PUSH2 0xAEE DUP5 DUP3 DUP6 ADD PUSH2 0xAB8 JUMP JUMPDEST SWAP2 POP POP SWAP3 SWAP2 POP POP JUMP JUMPDEST PUSH0 PUSH1 0x20 DUP3 DUP5 SUB SLT ISZERO PUSH2 0xB0C JUMPI PUSH2 0xB0B PUSH2 0x88F JUMP JUMPDEST JUMPDEST PUSH0 DUP3 ADD CALLDATALOAD PUSH8 0xFFFFFFFFFFFFFFFF DUP2 GT ISZERO PUSH2 0xB29 JUMPI PUSH2 0xB28 PUSH2 0x893 JUMP JUMPDEST JUMPDEST PUSH2 0xB35 DUP5 DUP3 DUP6 ADD PUSH2 0x9A6 JUMP JUMPDEST SWAP2 POP POP SWAP3 SWAP2 POP POP JUMP JUMPDEST PUSH2 0xB47 DUP2 PUSH2 0x9D3 JUMP JUMPDEST DUP3 MSTORE POP POP JUMP JUMPDEST PUSH0 PUSH1 0x40 DUP3 ADD SWAP1 POP PUSH2 0xB60 PUSH0 DUP4 ADD DUP6 PUSH2 0xB3E JUMP JUMPDEST PUSH2 0xB6D PUSH1 0x20 DUP4 ADD DUP5 PUSH2 0xB3E JUMP JUMPDEST SWAP4 SWAP3 POP POP POP JUMP JUMPDEST PUSH2 0xB7D DUP2 PUSH2 0xA91 JUMP JUMPDEST DUP3 MSTORE POP POP JUMP JUMPDEST PUSH0 PUSH1 0x20 DUP3 ADD SWAP1 POP PUSH2 0xB96 PUSH0 DUP4 ADD DUP5 PUSH2 0xB74 JUMP JUMPDEST SWAP3 SWAP2 POP POP JUMP JUMPDEST PUSH0 DUP2 ISZERO ISZERO SWAP1 POP SWAP2 SWAP1 POP JUMP JUMPDEST PUSH2 0xBB0 DUP2 PUSH2 0xB9C JUMP JUMPDEST DUP3 MSTORE POP POP JUMP JUMPDEST PUSH0 PUSH1 0x20 DUP3 ADD SWAP1 POP PUSH2 0xBC9 PUSH0 DUP4 ADD DUP5 PUSH2 0xBA7 JUMP JUMPDEST SWAP3 SWAP2 POP POP JUMP JUMPDEST PUSH0 PUSH8 0xFFFFFFFFFFFFFFFF DUP3 GT ISZERO PUSH2 0xBE9 JUMPI PUSH2 0xBE8 PUSH2 0x8AF JUMP JUMPDEST JUMPDEST PUSH1 0x20 DUP3 MUL SWAP1 POP PUSH1 0x20 DUP2 ADD SWAP1 POP SWAP2 SWAP1 POP JUMP JUMPDEST PUSH0 DUP1 REVERT JUMPDEST PUSH0 PUSH2 0xC10 PUSH2 0xC0B DUP5 PUSH2 0xBCF JUMP JUMPDEST PUSH2 0x90D JUMP JUMPDEST SWAP1 POP DUP1 DUP4 DUP3 MSTORE PUSH1 0x20 DUP3 ADD SWAP1 POP PUSH1 0x20 DUP5 MUL DUP4 ADD DUP6 DUP2 GT ISZERO PUSH2 0xC33 JUMPI PUSH2 0xC32 PUSH2 0xBFA JUMP JUMPDEST JUMPDEST DUP4 JUMPDEST DUP2 DUP2 LT ISZERO PUSH2 0xC7A JUMPI DUP1 CALLDATALOAD PUSH8 0xFFFFFFFFFFFFFFFF DUP2 GT ISZERO PUSH2 0xC58 JUMPI PUSH2 0xC57 PUSH2 0x897 JUMP JUMPDEST JUMPDEST DUP1 DUP7 ADD PUSH2 0xC65 DUP10 DUP3 PUSH2 0x9A6 JUMP JUMPDEST DUP6 MSTORE PUSH1 0x20 DUP6 ADD SWAP5 POP POP POP PUSH1 0x20 DUP2 ADD SWAP1 POP PUSH2 0xC35 JUMP JUMPDEST POP POP POP SWAP4 SWAP3 POP POP POP JUMP JUMPDEST PUSH0 DUP3 PUSH1 0x1F DUP4 ADD SLT PUSH2 0xC98 JUMPI PUSH2 0xC97 PUSH2 0x897 JUMP JUMPDEST JUMPDEST DUP2 CALLDATALOAD PUSH2 0xCA8 DUP5 DUP3 PUSH1 0x20 DUP7 ADD PUSH2 0xBFE JUMP JUMPDEST SWAP2 POP POP SWAP3 SWAP2 POP POP JUMP JUMPDEST PUSH0 PUSH8 0xFFFFFFFFFFFFFFFF DUP3 GT ISZERO PUSH2 0xCCB JUMPI PUSH2 0xCCA PUSH2 0x8AF JUMP JUMPDEST JUMPDEST PUSH1 0x20 DUP3 MUL SWAP1 POP PUSH1 0x20 DUP2 ADD SWAP1 POP SWAP2 SWAP1 POP JUMP JUMPDEST PUSH0 PUSH2 0xCEE PUSH2 0xCE9 DUP5 PUSH2 0xCB1 JUMP JUMPDEST PUSH2 0x90D JUMP JUMPDEST SWAP1 POP DUP1 DUP4 DUP3 MSTORE PUSH1 0x20 DUP3 ADD SWAP1 POP PUSH1 0x20 DUP5 MUL DUP4 ADD DUP6 DUP2 GT ISZERO PUSH2 0xD11 JUMPI PUSH2 0xD10 PUSH2 0xBFA JUMP JUMPDEST JUMPDEST DUP4 JUMPDEST DUP2 DUP2 LT ISZERO PUSH2 0xD3A JUMPI DUP1 PUSH2 0xD26 DUP9 DUP3 PUSH2 0x9F2 JUMP JUMPDEST DUP5 MSTORE PUSH1 0x20 DUP5 ADD SWAP4 POP POP PUSH1 0x20 DUP2 ADD SWAP1 POP PUSH2 0xD13 JUMP JUMPDEST POP POP POP SWAP4 SWAP3 POP POP POP JUMP JUMPDEST PUSH0 DUP3 PUSH1 0x1F DUP4 ADD SLT PUSH2 0xD58 JUMPI PUSH2 0xD57 PUSH2 0x897 JUMP JUMPDEST JUMPDEST DUP2 CALLDATALOAD PUSH2 0xD68 DUP5 DUP3 PUSH1 0x20 DUP7 ADD PUSH2 0xCDC JUMP JUMPDEST SWAP2 POP POP SWAP3 SWAP2 POP POP JUMP JUMPDEST PUSH0 DUP1 PUSH0 PUSH1 0x60 DUP5 DUP7 SUB SLT ISZERO PUSH2 0xD88 JUMPI PUSH2 0xD87 PUSH2 0x88F JUMP JUMPDEST JUMPDEST PUSH0 DUP5 ADD CALLDATALOAD PUSH8 0xFFFFFFFFFFFFFFFF DUP2 GT ISZERO PUSH2 0xDA5 JUMPI PUSH2 0xDA4 PUSH2 0x893 JUMP JUMPDEST JUMPDEST PUSH2 0xDB1 DUP7 DUP3 DUP8 ADD PUSH2 0xC84 JUMP JUMPDEST SWAP4 POP POP PUSH1 0x20 DUP5 ADD CALLDATALOAD PUSH8 0xFFFFFFFFFFFFFFFF DUP2 GT ISZERO PUSH2 0xDD2 JUMPI PUSH2 0xDD1 PUSH2 0x893 JUMP JUMPDEST JUMPDEST PUSH2 0xDDE DUP7 DUP3 DUP8 ADD PUSH2 0xD44 JUMP JUMPDEST SWAP3 POP POP PUSH1 0x40 DUP5 ADD CALLDATALOAD PUSH8 0xFFFFFFFFFFFFFFFF DUP2 GT ISZERO PUSH2 0xDFF JUMPI PUSH2 0xDFE PUSH2 0x893 JUMP JUMPDEST JUMPDEST PUSH2 0xE0B DUP7 DUP3 DUP8 ADD PUSH2 0xD44 JUMP JUMPDEST SWAP2 POP POP SWAP3 POP SWAP3 POP SWAP3 JUMP JUMPDEST PUSH0 DUP3 DUP3 MSTORE PUSH1 0x20 DUP3 ADD SWAP1 POP SWAP3 SWAP2 POP POP JUMP JUMPDEST PUSH32 0x43616C6C6572206973206E6F7420617574686F72697A65640000000000000000 PUSH0 DUP3 ADD MSTORE POP JUMP JUMPDEST PUSH0 PUSH2 0xE59 PUSH1 0x18 DUP4 PUSH2 0xE15 JUMP JUMPDEST SWAP2 POP PUSH2 0xE64 DUP3 PUSH2 0xE25 JUMP JUMPDEST PUSH1 0x20 DUP3 ADD SWAP1 POP SWAP2 SWAP1 POP JUMP JUMPDEST PUSH0 PUSH1 0x20 DUP3 ADD SWAP1 POP DUP2 DUP2 SUB PUSH0 DUP4 ADD MSTORE PUSH2 0xE86 DUP2 PUSH2 0xE4D JUMP JUMPDEST SWAP1 POP SWAP2 SWAP1 POP JUMP JUMPDEST PUSH0 DUP2 MLOAD SWAP1 POP SWAP2 SWAP1 POP JUMP JUMPDEST PUSH0 DUP2 SWAP1 POP SWAP3 SWAP2 POP POP JUMP JUMPDEST PUSH0 JUMPDEST DUP4 DUP2 LT ISZERO PUSH2 0xEBE JUMPI DUP1 DUP3 ADD MLOAD DUP2 DUP5 ADD MSTORE PUSH1 0x20 DUP2 ADD SWAP1 POP PUSH2 0xEA3 JUMP JUMPDEST PUSH0 DUP5 DUP5 ADD MSTORE POP POP POP POP JUMP JUMPDEST PUSH0 PUSH2 0xED3 DUP3 PUSH2 0xE8D JUMP JUMPDEST PUSH2 0xEDD DUP2 DUP6 PUSH2 0xE97 JUMP JUMPDEST SWAP4 POP PUSH2 0xEED DUP2 DUP6 PUSH1 0x20 DUP7 ADD PUSH2 0xEA1 JUMP JUMPDEST DUP1 DUP5 ADD SWAP2 POP POP SWAP3 SWAP2 POP POP JUMP JUMPDEST PUSH0 PUSH2 0xF04 DUP3 DUP5 PUSH2 0xEC9 JUMP JUMPDEST SWAP2 POP DUP2 SWAP1 POP SWAP3 SWAP2 POP POP JUMP JUMPDEST PUSH32 0x43616C6C6572206973206E6F7420746865206F776E6572000000000000000000 PUSH0 DUP3 ADD MSTORE POP JUMP JUMPDEST PUSH0 PUSH2 0xF43 PUSH1 0x17 DUP4 PUSH2 0xE15 JUMP JUMPDEST SWAP2 POP PUSH2 0xF4E DUP3 PUSH2 0xF0F JUMP JUMPDEST PUSH1 0x20 DUP3 ADD SWAP1 POP SWAP2 SWAP1 POP JUMP JUMPDEST PUSH0 PUSH1 0x20 DUP3 ADD SWAP1 POP DUP2 DUP2 SUB PUSH0 DUP4 ADD MSTORE PUSH2 0xF70 DUP2 PUSH2 0xF37 JUMP JUMPDEST SWAP1 POP SWAP2 SWAP1 POP JUMP JUMPDEST PUSH32 0x4461746120617272617973206D7573742068617665207468652073616D65206C PUSH0 DUP3 ADD MSTORE PUSH32 0x656E677468000000000000000000000000000000000000000000000000000000 PUSH1 0x20 DUP3 ADD MSTORE POP JUMP JUMPDEST PUSH0 PUSH2 0xFD1 PUSH1 0x25 DUP4 PUSH2 0xE15 JUMP JUMPDEST SWAP2 POP PUSH2 0xFDC DUP3 PUSH2 0xF77 JUMP JUMPDEST PUSH1 0x40 DUP3 ADD SWAP1 POP SWAP2 SWAP1 POP JUMP JUMPDEST PUSH0 PUSH1 0x20 DUP3 ADD SWAP1 POP DUP2 DUP2 SUB PUSH0 DUP4 ADD MSTORE PUSH2 0xFFE DUP2 PUSH2 0xFC5 JUMP JUMPDEST SWAP1 POP SWAP2 SWAP1 POP JUMP JUMPDEST PUSH32 0x4E487B7100000000000000000000000000000000000000000000000000000000 PUSH0 MSTORE PUSH1 0x32 PUSH1 0x4 MSTORE PUSH1 0x24 PUSH0 REVERT INVALID LOG2 PUSH5 0x6970667358 0x22 SLT KECCAK256 SWAP12 ADDRESS PUSH2 0x234A SWAP5 0xF7 0xD3 PUSH3 0x3BED41 JUMP 0xE6 PC 0x24 NOT 0xEF PUSH3 0x1AFD02 MLOAD SWAP3 0xE7 SWAP2 0xE8 EQ PUSH11 0x4A344964736F6C63430008 XOR STOP CALLER "
		},
		"gasEstimates": {
			"creation": {
				"codeDepositCost": "840000",
				"executionCost": "51629",
				"totalCost": "891629"
			},
			"external": {
				"addAuthorizedUpdater(address)": "27036",
				"authorizedUpdaters(address)": "2833",
				"deviceLocations(string)": "infinite",
				"getLocation(string)": "infinite",
				"isDeviceAtLocation(string,uint256,uint256)": "infinite",
				"owner()": "2594",
				"removeAuthorizedUpdater(address)": "26991",
				"transferOwnership(address)": "51323",
				"updateLocation(string,uint256,uint256)": "infinite",
				"updateLocationsBatch(string[],uint256[],uint256[])": "infinite"
			}
		},
		"methodIdentifiers": {
			"addAuthorizedUpdater(address)": "8c9b9fdc",
			"authorizedUpdaters(address)": "8ff29cfe",
			"deviceLocations(string)": "df500a98",
			"getLocation(string)": "735a4774",
			"isDeviceAtLocation(string,uint256,uint256)": "a618d1fb",
			"owner()": "8da5cb5b",
			"removeAuthorizedUpdater(address)": "603cda09",
			"transferOwnership(address)": "f2fde38b",
			"updateLocation(string,uint256,uint256)": "4c6be01c",
			"updateLocationsBatch(string[],uint256[],uint256[])": "af9b6af2"
		}
	},
	"abi": [
		{
			"inputs": [],
			"stateMutability": "nonpayable",
			"type": "constructor"
		},
		{
			"inputs": [
				{
					"internalType": "address",
					"name": "updater",
					"type": "address"
				}
			],
			"name": "addAuthorizedUpdater",
			"outputs": [],
			"stateMutability": "nonpayable",
			"type": "function"
		},
		{
			"inputs": [
				{
					"internalType": "address",
					"name": "",
					"type": "address"
				}
			],
			"name": "authorizedUpdaters",
			"outputs": [
				{
					"internalType": "bool",
					"name": "",
					"type": "bool"
				}
			],
			"stateMutability": "view",
			"type": "function"
		},
		{
			"inputs": [
				{
					"internalType": "string",
					"name": "",
					"type": "string"
				}
			],
			"name": "deviceLocations",
			"outputs": [
				{
					"internalType": "uint256",
					"name": "latitude",
					"type": "uint256"
				},
				{
					"internalType": "uint256",
					"name": "longitude",
					"type": "uint256"
				}
			],
			"stateMutability": "view",
			"type": "function"
		},
		{
			"inputs": [
				{
					"internalType": "string",
					"name": "deviceId",
					"type": "string"
				}
			],
			"name": "getLocation",
			"outputs": [
				{
					"internalType": "uint256",
					"name": "latitude",
					"type": "uint256"
				},
				{
					"internalType": "uint256",
					"name": "longitude",
					"type": "uint256"
				}
			],
			"stateMutability": "view",
			"type": "function"
		},
		{
			"inputs": [
				{
					"internalType": "string",
					"name": "deviceId",
					"type": "string"
				},
				{
					"internalType": "uint256",
					"name": "_latitude",
					"type": "uint256"
				},
				{
					"internalType": "uint256",
					"name": "_longitude",
					"type": "uint256"
				}
			],
			"name": "isDeviceAtLocation",
			"outputs": [
				{
					"internalType": "bool",
					"name": "",
					"type": "bool"
				}
			],
			"stateMutability": "view",
			"type": "function"
		},
		{
			"inputs": [],
			"name": "owner",
			"outputs": [
				{
					"internalType": "address",
					"name": "",
					"type": "address"
				}
			],
			"stateMutability": "view",
			"type": "function"
		},
		{
			"inputs": [
				{
					"internalType": "address",
					"name": "updater",
					"type": "address"
				}
			],
			"name": "removeAuthorizedUpdater",
			"outputs": [],
			"stateMutability": "nonpayable",
			"type": "function"
		},
		{
			"inputs": [
				{
					"internalType": "address",
					"name": "newOwner",
					"type": "address"
				}
			],
			"name": "transferOwnership",
			"outputs": [],
			"stateMutability": "nonpayable",
			"type": "function"
		},
		{
			"inputs": [
				{
					"internalType": "string",
					"name": "deviceId",
					"type": "string"
				},
				{
					"internalType": "uint256",
					"name": "_latitude",
					"type": "uint256"
				},
				{
					"internalType": "uint256",
					"name": "_longitude",
					"type": "uint256"
				}
			],
			"name": "updateLocation",
			"outputs": [],
			"stateMutability": "nonpayable",
			"type": "function"
		},
		{
			"inputs": [
				{
					"internalType": "string[]",
					"name": "deviceIds",
					"type": "string[]"
				},
				{
					"internalType": "uint256[]",
					"name": "latitudes",
					"type": "uint256[]"
				},
				{
					"internalType": "uint256[]",
					"name": "longitudes",
					"type": "uint256[]"
				}
			],
			"name": "updateLocationsBatch",
			"outputs": [],
			"stateMutability": "nonpayable",
			"type": "function"
		}
	]
}